{
    "contractName": "MerkleTree",
    "abi": [
        {
            "inputs": [],
            "stateMutability": "nonpayable",
            "type": "constructor"
        },
        {
            "inputs": [
                {
                    "internalType": "uint256",
                    "name": "",
                    "type": "uint256"
                }
            ],
            "name": "hashes",
            "outputs": [
                {
                    "internalType": "uint256",
                    "name": "",
                    "type": "uint256"
                }
            ],
            "stateMutability": "view",
            "type": "function"
        },
        {
            "inputs": [],
            "name": "index",
            "outputs": [
                {
                    "internalType": "uint256",
                    "name": "",
                    "type": "uint256"
                }
            ],
            "stateMutability": "view",
            "type": "function"
        },
        {
            "inputs": [
                {
                    "internalType": "uint256",
                    "name": "hashedLeaf",
                    "type": "uint256"
                }
            ],
            "name": "insertLeaf",
            "outputs": [
                {
                    "internalType": "uint256",
                    "name": "",
                    "type": "uint256"
                }
            ],
            "stateMutability": "nonpayable",
            "type": "function"
        },
        {
            "inputs": [],
            "name": "root",
            "outputs": [
                {
                    "internalType": "uint256",
                    "name": "",
                    "type": "uint256"
                }
            ],
            "stateMutability": "view",
            "type": "function"
        },
        {
            "inputs": [
                {
                    "internalType": "uint256[2]",
                    "name": "a",
                    "type": "uint256[2]"
                },
                {
                    "internalType": "uint256[2][2]",
                    "name": "b",
                    "type": "uint256[2][2]"
                },
                {
                    "internalType": "uint256[2]",
                    "name": "c",
                    "type": "uint256[2]"
                },
                {
                    "internalType": "uint256[1]",
                    "name": "input",
                    "type": "uint256[1]"
                }
            ],
            "name": "verify",
            "outputs": [
                {
                    "internalType": "bool",
                    "name": "",
                    "type": "bool"
                }
            ],
            "stateMutability": "view",
            "type": "function"
        },
        {
            "inputs": [
                {
                    "internalType": "uint256[2]",
                    "name": "a",
                    "type": "uint256[2]"
                },
                {
                    "internalType": "uint256[2][2]",
                    "name": "b",
                    "type": "uint256[2][2]"
                },
                {
                    "internalType": "uint256[2]",
                    "name": "c",
                    "type": "uint256[2]"
                },
                {
                    "internalType": "uint256[1]",
                    "name": "input",
                    "type": "uint256[1]"
                }
            ],
            "name": "verifyProof",
            "outputs": [
                {
                    "internalType": "bool",
                    "name": "r",
                    "type": "bool"
                }
            ],
            "stateMutability": "view",
            "type": "function"
        }
    ],
    "bytecode": "608060405260006001553480156200001657600080fd5b5060005b600f8110156200006957600080546001810182558180527f290decd9548b62a8d60345a988386fc84ba6bc95484008f6362f93160ef3e56301558062000060816200075d565b9150506200001a565b5073__$9f1738e740d64ee3edfc6dabc5dc43d276$__6329a5f2f6604051806040016040528060008081548110620000a557620000a562000785565b906000526020600020015481526020016000600181548110620000cc57620000cc62000785565b90600052602060002001548152506040518263ffffffff1660e01b8152600401620000f891906200079b565b602060405180830381865af415801562000116573d6000803e3d6000fd5b505050506040513d601f19601f820116820180604052508101906200013c9190620007ce565b600060088154811062000153576200015362000785565b906000526020600020018190555073__$9f1738e740d64ee3edfc6dabc5dc43d276$__6329a5f2f6604051806040016040528060006002815481106200019d576200019d62000785565b906000526020600020015481526020016000600381548110620001c457620001c462000785565b90600052602060002001548152506040518263ffffffff1660e01b8152600401620001f091906200079b565b602060405180830381865af41580156200020e573d6000803e3d6000fd5b505050506040513d601f19601f82011682018060405250810190620002349190620007ce565b60006009815481106200024b576200024b62000785565b906000526020600020018190555073__$9f1738e740d64ee3edfc6dabc5dc43d276$__6329a5f2f66040518060400160405280600060048154811062000295576200029562000785565b906000526020600020015481526020016000600581548110620002bc57620002bc62000785565b90600052602060002001548152506040518263ffffffff1660e01b8152600401620002e891906200079b565b602060405180830381865af415801562000306573d6000803e3d6000fd5b505050506040513d601f19601f820116820180604052508101906200032c9190620007ce565b6000600a8154811062000343576200034362000785565b906000526020600020018190555073__$9f1738e740d64ee3edfc6dabc5dc43d276$__6329a5f2f6604051806040016040528060006006815481106200038d576200038d62000785565b906000526020600020015481526020016000600781548110620003b457620003b462000785565b90600052602060002001548152506040518263ffffffff1660e01b8152600401620003e091906200079b565b602060405180830381865af4158015620003fe573d6000803e3d6000fd5b505050506040513d601f19601f82011682018060405250810190620004249190620007ce565b6000600b815481106200043b576200043b62000785565b906000526020600020018190555073__$9f1738e740d64ee3edfc6dabc5dc43d276$__6329a5f2f66040518060400160405280600060088154811062000485576200048562000785565b906000526020600020015481526020016000600981548110620004ac57620004ac62000785565b90600052602060002001548152506040518263ffffffff1660e01b8152600401620004d891906200079b565b602060405180830381865af4158015620004f6573d6000803e3d6000fd5b505050506040513d601f19601f820116820180604052508101906200051c9190620007ce565b6000600c8154811062000533576200053362000785565b906000526020600020018190555073__$9f1738e740d64ee3edfc6dabc5dc43d276$__6329a5f2f660405180604001604052806000600a815481106200057d576200057d62000785565b906000526020600020015481526020016000600b81548110620005a457620005a462000785565b90600052602060002001548152506040518263ffffffff1660e01b8152600401620005d091906200079b565b602060405180830381865af4158015620005ee573d6000803e3d6000fd5b505050506040513d601f19601f82011682018060405250810190620006149190620007ce565b6000600d815481106200062b576200062b62000785565b906000526020600020018190555073__$9f1738e740d64ee3edfc6dabc5dc43d276$__6329a5f2f660405180604001604052806000600c8154811062000675576200067562000785565b906000526020600020015481526020016000600d815481106200069c576200069c62000785565b90600052602060002001548152506040518263ffffffff1660e01b8152600401620006c891906200079b565b602060405180830381865af4158015620006e6573d6000803e3d6000fd5b505050506040513d601f19601f820116820180604052508101906200070c9190620007ce565b6000600e8154811062000723576200072362000785565b90600052602060002001819055506000600e8154811062000748576200074862000785565b600091825260209091200154600255620007e8565b6000600182016200077e57634e487b7160e01b600052601160045260246000fd5b5060010190565b634e487b7160e01b600052603260045260246000fd5b60408101818360005b6002811015620007c5578151835260209283019290910190600101620007a4565b50505092915050565b600060208284031215620007e157600080fd5b5051919050565b6118e680620007f86000396000f3fe608060405234801561001057600080fd5b50600436106100625760003560e01c80632986c0e5146100675780632fa8ea6d1461008357806343753b4d146100a6578063501895ae146100b9578063b7202434146100cc578063ebf0c717146100df575b600080fd5b61007060015481565b6040519081526020015b60405180910390f35b61009661009136600461169e565b6100e8565b604051901515815260200161007a565b6100966100b436600461169e565b610117565b6100706100c736600461177c565b610228565b6100706100da36600461177c565b610249565b61007060025481565b6000806100f786868686610117565b60025484519192501480801561010a5750815b925050505b949350505050565b60006101216114b2565b60408051808201825287518152602080890151818301529083528151608081018352875151818401908152885183015160608301528152825180840184528883018051518252518301518184015281830152838201528151808301835286518152868201518183015283830152815160018082528184019093526000929091828101908036833701905050905060005b6001811015610200578481600181106101cc576101cc611795565b60200201518282815181106101e3576101e3611795565b6020908102919091010152806101f8816117c1565b9150506101b1565b5061020b8183610871565b60000361021d5760019250505061010f565b60009250505061010f565b6000818154811061023857600080fd5b600091825260209091200154905081565b600060086001541061025a57600080fd5b8160006001548154811061027057610270611795565b60009182526020909120015560015461028a6002826117f0565b6000036103c05773__$9f1738e740d64ee3edfc6dabc5dc43d276$__6329a5f2f660405180604001604052806000600154815481106102cb576102cb611795565b90600052602060002001548152602001600060015460016102ec9190611804565b815481106102fc576102fc611795565b90600052602060002001548152506040518263ffffffff1660e01b8152600401610326919061181c565b602060405180830381865af4158015610343573d6000803e3d6000fd5b505050506040513d601f19601f82011682018060405250810190610367919061184d565b600060026001546103789190611866565b610383906008611804565b8154811061039357610393611795565b6000918252602090912001556001546103ae90600290611866565b6103b9906008611804565b9050610500565b73__$9f1738e740d64ee3edfc6dabc5dc43d276$__6329a5f2f660405180604001604052806000600154815481106103fa576103fa611795565b9060005260206000200154815260200160006001805461041a919061187a565b8154811061042a5761042a611795565b90600052602060002001548152506040518263ffffffff1660e01b8152600401610454919061181c565b602060405180830381865af4158015610471573d6000803e3d6000fd5b505050506040513d601f19601f82011682018060405250810190610495919061184d565b60006002600180546104a7919061187a565b6104b19190611866565b6104bc906008611804565b815481106104cc576104cc611795565b600091825260209091200155600180546002916104e89161187a565b6104f29190611866565b6104fd906008611804565b90505b61050b6002826117f0565b6000036106295773__$9f1738e740d64ee3edfc6dabc5dc43d276$__6329a5f2f660405180604001604052806000858154811061054a5761054a611795565b9060005260206000200154815260200160008560016105699190611804565b8154811061057957610579611795565b90600052602060002001548152506040518263ffffffff1660e01b81526004016105a3919061181c565b602060405180830381865af41580156105c0573d6000803e3d6000fd5b505050506040513d601f19601f820116820180604052508101906105e4919061184d565b600060026105f360088561187a565b6105fd9190611866565b61060890600c611804565b8154811061061857610618611795565b600091825260209091200155610748565b73__$9f1738e740d64ee3edfc6dabc5dc43d276$__6329a5f2f660405180604001604052806000858154811061066157610661611795565b906000526020600020015481526020016000600186610680919061187a565b8154811061069057610690611795565b90600052602060002001548152506040518263ffffffff1660e01b81526004016106ba919061181c565b602060405180830381865af41580156106d7573d6000803e3d6000fd5b505050506040513d601f19601f820116820180604052508101906106fb919061184d565b60006002600161070c60088661187a565b610716919061187a565b6107209190611866565b61072b90600c611804565b8154811061073b5761073b611795565b6000918252602090912001555b73__$9f1738e740d64ee3edfc6dabc5dc43d276$__6329a5f2f660405180604001604052806000600c8154811061078157610781611795565b906000526020600020015481526020016000600d815481106107a5576107a5611795565b90600052602060002001548152506040518263ffffffff1660e01b81526004016107cf919061181c565b602060405180830381865af41580156107ec573d6000803e3d6000fd5b505050506040513d601f19601f82011682018060405250810190610810919061184d565b6000600e8154811061082457610824611795565b90600052602060002001819055506000600e8154811061084657610846611795565b60009182526020822001546002556001805491610862836117c1565b90915550506002549392505050565b60007f30644e72e131a029b85045b68181585d2833e84879b9709143e1f593f00000018161089d610a68565b9050806080015151855160016108b39190611804565b146108fa5760405162461bcd60e51b81526020600482015260126024820152711d995c9a599a595c8b5898590b5a5b9c1d5d60721b60448201526064015b60405180910390fd5b604080518082019091526000808252602082018190525b86518110156109eb578387828151811061092d5761092d611795565b6020026020010151106109825760405162461bcd60e51b815260206004820152601f60248201527f76657269666965722d6774652d736e61726b2d7363616c61722d6669656c640060448201526064016108f1565b6109d7826109d2856080015184600161099b9190611804565b815181106109ab576109ab611795565b60200260200101518a85815181106109c5576109c5611795565b6020026020010151610e01565b610e97565b9150806109e3816117c1565b915050610911565b50610a14818360800151600081518110610a0757610a07611795565b6020026020010151610e97565b9050610a4a610a268660000151610f30565b8660200151846000015185602001518587604001518b604001518960600151610fcf565b610a5a5760019350505050610a62565b600093505050505b92915050565b610a70611503565b6040805180820182527f2d4d9aa7e302d9df41749d5507949d05dbea33fbb16c643b22f599a2be6df2e281527f14bedd503c37ceb061d8ec60209fe345ce89830a19230301f076caff004d19266020808301919091529083528151608080820184527f0967032fcbf776d1afc985f88877f182d38480a653f2decaa9794cbc3bf3060c8285019081527f0e187847ad4c798374d0d6732bf501847dd68bc0e071241e0213bc7fc13db7ab606080850191909152908352845180860186527f304cfbd1e08a704a99f5e847d93f8c3caafddec46b7a0d379da69a4d112346a781527f1739c1b1a457a8c7313123d24d2f9192f896b7c63eea05a9d57f06547ad0cec8818601528385015285840192909252835180820185527f198e9393920d483a7260bfb731fb5d25f1aa493335a9e71297e485b7aef312c28186019081527f1800deef121f1e76426a00665e5c4479674322d4f75edadd46debd5cd992f6ed828501528152845180860186527f090689d0585ff075ec9e99ad690c3395bc4b313370b38ef355acdadcd122975b81527f12c85ea5db8c6deb4aab71808dcb408fe3d1e7690c43d37b4ce6cc0166fa7daa818601528185015285850152835190810184527f01205fd0548d17b24340b3fae4c12aed434d00d1e11adad9089874f603d67bb18185019081527f2781f70cd6cbcbe68f3b35b63dbc92dd67c61b3c74e57653a0a1d499d8f494a3828401528152835180850185527f04337e6f51c2760646ed9ce6e897c5a7f557e1e9c5e76f031c56a74fd8ac243b81527f20171b0eed35846b89fd07d009fe335e667a1b945f241e06a3ff128be9fb8e31818501528184015281850152825160028082529181019093529082015b6040805180820190915260008082526020820152815260200190600190039081610ce957505060808201908152604080518082019091527f21b93425ea33526ccf33e84fdca53a752d26953328266d808a620aa0bf49a41681527f179bcb1c440b9402e0556950cd58a87243f84cf1d0359255fc98ac2616f170a3602082015290518051600090610d7c57610d7c611795565b602002602001018190525060405180604001604052807f083818c0ef4a77f2e172792822e89144d83928e5ba0746f8bea91ad0510b921081526020017f244d98d4d76743c886f50917a8f3d0ca7039808a7946d3f94f51800589da8a408152508160800151600181518110610df357610df3611795565b602002602001018190525090565b6040805180820190915260008082526020820152610e1d611554565b835181526020808501519082015260408101839052600060608360808460076107d05a03fa90508080610e4c57fe5b5080610e8f5760405162461bcd60e51b81526020600482015260126024820152711c185a5c9a5b99cb5b5d5b0b59985a5b195960721b60448201526064016108f1565b505092915050565b6040805180820190915260008082526020820152610eb3611572565b8351815260208085015181830152835160408301528301516060808301919091526000908360c08460066107d05a03fa90508080610eed57fe5b5080610e8f5760405162461bcd60e51b81526020600482015260126024820152711c185a5c9a5b99cb5859190b59985a5b195960721b60448201526064016108f1565b604080518082019091526000808252602082015281517f30644e72e131a029b85045b68181585d97816a916871ca8d3c208c16d87cfd4790158015610f7757506020830151155b15610f975750506040805180820190915260008082526020820152919050565b604051806040016040528084600001518152602001828560200151610fbc91906117f0565b610fc6908461187a565b90529392505050565b60408051600480825260a08201909252600091829190816020015b6040805180820190915260008082526020820152815260200190600190039081610fea57505060408051600480825260a0820190925291925060009190602082015b611034611590565b81526020019060019003908161102c5790505090508a8260008151811061105d5761105d611795565b6020026020010181905250888260018151811061107c5761107c611795565b6020026020010181905250868260028151811061109b5761109b611795565b602002602001018190525084826003815181106110ba576110ba611795565b602002602001018190525089816000815181106110d9576110d9611795565b602002602001018190525087816001815181106110f8576110f8611795565b6020026020010181905250858160028151811061111757611117611795565b6020026020010181905250838160038151811061113657611136611795565b602002602001018190525061114b828261115a565b9b9a5050505050505050505050565b600081518351146111a65760405162461bcd60e51b81526020600482015260166024820152751c185a5c9a5b99cb5b195b99dd1a1ccb59985a5b195960521b60448201526064016108f1565b825160006111b5826006611891565b905060008167ffffffffffffffff8111156111d2576111d26115ec565b6040519080825280602002602001820160405280156111fb578160200160208202803683370190505b50905060005b838110156114365786818151811061121b5761121b611795565b602002602001015160000151828260066112359190611891565b611240906000611804565b8151811061125057611250611795565b60200260200101818152505086818151811061126e5761126e611795565b602002602001015160200151828260066112889190611891565b611293906001611804565b815181106112a3576112a3611795565b6020026020010181815250508581815181106112c1576112c1611795565b60209081029190910101515151826112da836006611891565b6112e5906002611804565b815181106112f5576112f5611795565b60200260200101818152505085818151811061131357611313611795565b6020908102919091018101515101518261132e836006611891565b611339906003611804565b8151811061134957611349611795565b60200260200101818152505085818151811061136757611367611795565b60200260200101516020015160006002811061138557611385611795565b602002015182611396836006611891565b6113a1906004611804565b815181106113b1576113b1611795565b6020026020010181815250508581815181106113cf576113cf611795565b6020026020010151602001516001600281106113ed576113ed611795565b6020020151826113fe836006611891565b611409906005611804565b8151811061141957611419611795565b60209081029190910101528061142e816117c1565b915050611201565b5061143f6115b0565b6000602082602086026020860160086107d05a03fa9050808061145e57fe5b50806114a45760405162461bcd60e51b81526020600482015260156024820152741c185a5c9a5b99cb5bdc18dbd9194b59985a5b1959605a1b60448201526064016108f1565b505115159695505050505050565b6040805160a0810190915260006060820181815260808301919091528152602081016114dc611590565b81526020016114fe604051806040016040528060008152602001600081525090565b905290565b6040805160e08101909152600060a0820181815260c083019190915281526020810161152d611590565b815260200161153a611590565b8152602001611547611590565b8152602001606081525090565b60405180606001604052806003906020820280368337509192915050565b60405180608001604052806004906020820280368337509192915050565b60405180604001604052806115a36115ce565b81526020016114fe6115ce565b60405180602001604052806001906020820280368337509192915050565b60405180604001604052806002906020820280368337509192915050565b634e487b7160e01b600052604160045260246000fd5b6040805190810167ffffffffffffffff81118282101715611625576116256115ec565b60405290565b6040516020810167ffffffffffffffff81118282101715611625576116256115ec565b600082601f83011261165f57600080fd5b611667611602565b80604084018581111561167957600080fd5b845b8181101561169357803584526020938401930161167b565b509095945050505050565b6000806000806101208086880312156116b657600080fd5b6116c0878761164e565b9450604087605f8801126116d357600080fd5b6116db611602565b8060c089018a8111156116ed57600080fd5b838a015b81811015611712576117038c8261164e565b845260209093019284016116f1565b508197506117208b8261164e565b9650505050508661011f87011261173657600080fd5b61173e61162b565b90860190808883111561175057600080fd5b61010088015b8381101561176e578035835260209283019201611756565b509598949750929550505050565b60006020828403121561178e57600080fd5b5035919050565b634e487b7160e01b600052603260045260246000fd5b634e487b7160e01b600052601160045260246000fd5b6000600182016117d3576117d36117ab565b5060010190565b634e487b7160e01b600052601260045260246000fd5b6000826117ff576117ff6117da565b500690565b60008219821115611817576118176117ab565b500190565b60408101818360005b6002811015611844578151835260209283019290910190600101611825565b50505092915050565b60006020828403121561185f57600080fd5b5051919050565b600082611875576118756117da565b500490565b60008282101561188c5761188c6117ab565b500390565b60008160001904831182151516156118ab576118ab6117ab565b50029056fea2646970667358221220d79e7fcd2dd3a5825e7aa86cee197e8262a3331a49da7acd26f4b5d26be2437064736f6c634300080d0033",
    "sourcePath": "/home/suhas/zku/week2_assignment/week2/Part1/contracts/MerkleTree.sol",
    "compiler": {
        "name": "solc",
        "version": "0.8.13+commit.abaa5c0e"
    },
    "functionHashes": {
        "hashes(uint256)": "501895ae",
        "index()": "2986c0e5",
        "insertLeaf(uint256)": "b7202434",
        "root()": "ebf0c717",
        "verify(uint256[2],uint256[2][2],uint256[2],uint256[1])": "2fa8ea6d",
        "verifyProof(uint256[2],uint256[2][2],uint256[2],uint256[1])": "43753b4d"
    },
    "gasEstimates": {
        "creation": {
            "codeDepositCost": "1274800",
            "executionCost": "infinite",
            "totalCost": "infinite"
        },
        "external": {
            "hashes(uint256)": "4608",
            "index()": "2262",
            "insertLeaf(uint256)": "infinite",
            "root()": "2372",
            "verify(uint256[2],uint256[2][2],uint256[2],uint256[1])": "infinite",
            "verifyProof(uint256[2],uint256[2][2],uint256[2],uint256[1])": "infinite"
        }
    }
}